{
  "_format": "hh-sol-artifact-1",
  "contractName": "NFTMinter",
  "sourceName": "contracts/nft_minter.sol",
  "abi": [
    {
      "inputs": [],
      "stateMutability": "nonpayable",
      "type": "constructor"
    },
    {
      "anonymous": false,
      "inputs": [
        {
          "indexed": true,
          "internalType": "address",
          "name": "owner",
          "type": "address"
        },
        {
          "indexed": true,
          "internalType": "address",
          "name": "approved",
          "type": "address"
        },
        {
          "indexed": true,
          "internalType": "uint256",
          "name": "tokenId",
          "type": "uint256"
        }
      ],
      "name": "Approval",
      "type": "event"
    },
    {
      "anonymous": false,
      "inputs": [
        {
          "indexed": true,
          "internalType": "address",
          "name": "owner",
          "type": "address"
        },
        {
          "indexed": true,
          "internalType": "address",
          "name": "operator",
          "type": "address"
        },
        {
          "indexed": false,
          "internalType": "bool",
          "name": "approved",
          "type": "bool"
        }
      ],
      "name": "ApprovalForAll",
      "type": "event"
    },
    {
      "anonymous": false,
      "inputs": [
        {
          "indexed": true,
          "internalType": "address",
          "name": "previousOwner",
          "type": "address"
        },
        {
          "indexed": true,
          "internalType": "address",
          "name": "newOwner",
          "type": "address"
        }
      ],
      "name": "OwnershipTransferred",
      "type": "event"
    },
    {
      "anonymous": false,
      "inputs": [
        {
          "indexed": true,
          "internalType": "address",
          "name": "from",
          "type": "address"
        },
        {
          "indexed": true,
          "internalType": "address",
          "name": "to",
          "type": "address"
        },
        {
          "indexed": true,
          "internalType": "uint256",
          "name": "tokenId",
          "type": "uint256"
        }
      ],
      "name": "Transfer",
      "type": "event"
    },
    {
      "inputs": [
        {
          "internalType": "address",
          "name": "to",
          "type": "address"
        },
        {
          "internalType": "uint256",
          "name": "tokenId",
          "type": "uint256"
        }
      ],
      "name": "approve",
      "outputs": [],
      "stateMutability": "nonpayable",
      "type": "function"
    },
    {
      "inputs": [
        {
          "internalType": "address",
          "name": "owner",
          "type": "address"
        }
      ],
      "name": "balanceOf",
      "outputs": [
        {
          "internalType": "uint256",
          "name": "",
          "type": "uint256"
        }
      ],
      "stateMutability": "view",
      "type": "function"
    },
    {
      "inputs": [],
      "name": "baseExtension",
      "outputs": [
        {
          "internalType": "string",
          "name": "",
          "type": "string"
        }
      ],
      "stateMutability": "view",
      "type": "function"
    },
    {
      "inputs": [],
      "name": "baseURI",
      "outputs": [
        {
          "internalType": "string",
          "name": "",
          "type": "string"
        }
      ],
      "stateMutability": "view",
      "type": "function"
    },
    {
      "inputs": [],
      "name": "cost",
      "outputs": [
        {
          "internalType": "uint256",
          "name": "",
          "type": "uint256"
        }
      ],
      "stateMutability": "view",
      "type": "function"
    },
    {
      "inputs": [
        {
          "internalType": "uint256",
          "name": "tokenId",
          "type": "uint256"
        }
      ],
      "name": "getApproved",
      "outputs": [
        {
          "internalType": "address",
          "name": "",
          "type": "address"
        }
      ],
      "stateMutability": "view",
      "type": "function"
    },
    {
      "inputs": [
        {
          "internalType": "address",
          "name": "owner",
          "type": "address"
        },
        {
          "internalType": "address",
          "name": "operator",
          "type": "address"
        }
      ],
      "name": "isApprovedForAll",
      "outputs": [
        {
          "internalType": "bool",
          "name": "",
          "type": "bool"
        }
      ],
      "stateMutability": "view",
      "type": "function"
    },
    {
      "inputs": [],
      "name": "maxMintAmount",
      "outputs": [
        {
          "internalType": "uint256",
          "name": "",
          "type": "uint256"
        }
      ],
      "stateMutability": "view",
      "type": "function"
    },
    {
      "inputs": [],
      "name": "maxSupply",
      "outputs": [
        {
          "internalType": "uint256",
          "name": "",
          "type": "uint256"
        }
      ],
      "stateMutability": "view",
      "type": "function"
    },
    {
      "inputs": [
        {
          "internalType": "address",
          "name": "_to",
          "type": "address"
        },
        {
          "internalType": "uint256",
          "name": "_mintAmount",
          "type": "uint256"
        }
      ],
      "name": "mint",
      "outputs": [],
      "stateMutability": "payable",
      "type": "function"
    },
    {
      "inputs": [],
      "name": "name",
      "outputs": [
        {
          "internalType": "string",
          "name": "",
          "type": "string"
        }
      ],
      "stateMutability": "view",
      "type": "function"
    },
    {
      "inputs": [],
      "name": "owner",
      "outputs": [
        {
          "internalType": "address",
          "name": "",
          "type": "address"
        }
      ],
      "stateMutability": "view",
      "type": "function"
    },
    {
      "inputs": [
        {
          "internalType": "uint256",
          "name": "tokenId",
          "type": "uint256"
        }
      ],
      "name": "ownerOf",
      "outputs": [
        {
          "internalType": "address",
          "name": "",
          "type": "address"
        }
      ],
      "stateMutability": "view",
      "type": "function"
    },
    {
      "inputs": [
        {
          "internalType": "bool",
          "name": "_state",
          "type": "bool"
        }
      ],
      "name": "pause",
      "outputs": [],
      "stateMutability": "nonpayable",
      "type": "function"
    },
    {
      "inputs": [],
      "name": "paused",
      "outputs": [
        {
          "internalType": "bool",
          "name": "",
          "type": "bool"
        }
      ],
      "stateMutability": "view",
      "type": "function"
    },
    {
      "inputs": [],
      "name": "renounceOwnership",
      "outputs": [],
      "stateMutability": "nonpayable",
      "type": "function"
    },
    {
      "inputs": [
        {
          "internalType": "address",
          "name": "from",
          "type": "address"
        },
        {
          "internalType": "address",
          "name": "to",
          "type": "address"
        },
        {
          "internalType": "uint256",
          "name": "tokenId",
          "type": "uint256"
        }
      ],
      "name": "safeTransferFrom",
      "outputs": [],
      "stateMutability": "nonpayable",
      "type": "function"
    },
    {
      "inputs": [
        {
          "internalType": "address",
          "name": "from",
          "type": "address"
        },
        {
          "internalType": "address",
          "name": "to",
          "type": "address"
        },
        {
          "internalType": "uint256",
          "name": "tokenId",
          "type": "uint256"
        },
        {
          "internalType": "bytes",
          "name": "_data",
          "type": "bytes"
        }
      ],
      "name": "safeTransferFrom",
      "outputs": [],
      "stateMutability": "nonpayable",
      "type": "function"
    },
    {
      "inputs": [
        {
          "internalType": "address",
          "name": "operator",
          "type": "address"
        },
        {
          "internalType": "bool",
          "name": "approved",
          "type": "bool"
        }
      ],
      "name": "setApprovalForAll",
      "outputs": [],
      "stateMutability": "nonpayable",
      "type": "function"
    },
    {
      "inputs": [
        {
          "internalType": "string",
          "name": "_newBaseExtension",
          "type": "string"
        }
      ],
      "name": "setBaseExtension",
      "outputs": [],
      "stateMutability": "nonpayable",
      "type": "function"
    },
    {
      "inputs": [
        {
          "internalType": "string",
          "name": "_newBaseURI",
          "type": "string"
        }
      ],
      "name": "setBaseURI",
      "outputs": [],
      "stateMutability": "nonpayable",
      "type": "function"
    },
    {
      "inputs": [
        {
          "internalType": "uint256",
          "name": "_newmaxMintAmount",
          "type": "uint256"
        }
      ],
      "name": "setmaxMintAmount",
      "outputs": [],
      "stateMutability": "nonpayable",
      "type": "function"
    },
    {
      "inputs": [
        {
          "internalType": "bytes4",
          "name": "interfaceId",
          "type": "bytes4"
        }
      ],
      "name": "supportsInterface",
      "outputs": [
        {
          "internalType": "bool",
          "name": "",
          "type": "bool"
        }
      ],
      "stateMutability": "view",
      "type": "function"
    },
    {
      "inputs": [],
      "name": "symbol",
      "outputs": [
        {
          "internalType": "string",
          "name": "",
          "type": "string"
        }
      ],
      "stateMutability": "view",
      "type": "function"
    },
    {
      "inputs": [
        {
          "internalType": "uint256",
          "name": "index",
          "type": "uint256"
        }
      ],
      "name": "tokenByIndex",
      "outputs": [
        {
          "internalType": "uint256",
          "name": "",
          "type": "uint256"
        }
      ],
      "stateMutability": "view",
      "type": "function"
    },
    {
      "inputs": [
        {
          "internalType": "address",
          "name": "owner",
          "type": "address"
        },
        {
          "internalType": "uint256",
          "name": "index",
          "type": "uint256"
        }
      ],
      "name": "tokenOfOwnerByIndex",
      "outputs": [
        {
          "internalType": "uint256",
          "name": "",
          "type": "uint256"
        }
      ],
      "stateMutability": "view",
      "type": "function"
    },
    {
      "inputs": [
        {
          "internalType": "uint256",
          "name": "tokenId",
          "type": "uint256"
        }
      ],
      "name": "tokenURI",
      "outputs": [
        {
          "internalType": "string",
          "name": "",
          "type": "string"
        }
      ],
      "stateMutability": "view",
      "type": "function"
    },
    {
      "inputs": [],
      "name": "totalSupply",
      "outputs": [
        {
          "internalType": "uint256",
          "name": "",
          "type": "uint256"
        }
      ],
      "stateMutability": "view",
      "type": "function"
    },
    {
      "inputs": [
        {
          "internalType": "address",
          "name": "from",
          "type": "address"
        },
        {
          "internalType": "address",
          "name": "to",
          "type": "address"
        },
        {
          "internalType": "uint256",
          "name": "tokenId",
          "type": "uint256"
        }
      ],
      "name": "transferFrom",
      "outputs": [],
      "stateMutability": "nonpayable",
      "type": "function"
    },
    {
      "inputs": [
        {
          "internalType": "address",
          "name": "newOwner",
          "type": "address"
        }
      ],
      "name": "transferOwnership",
      "outputs": [],
      "stateMutability": "nonpayable",
      "type": "function"
    },
    {
      "inputs": [
        {
          "internalType": "address",
          "name": "_owner",
          "type": "address"
        }
      ],
      "name": "walletOfOwner",
      "outputs": [
        {
          "internalType": "uint256[]",
          "name": "",
          "type": "uint256[]"
        }
      ],
      "stateMutability": "view",
      "type": "function"
    },
    {
      "inputs": [],
      "name": "withdraw",
      "outputs": [],
      "stateMutability": "payable",
      "type": "function"
    }
  ],
  "bytecode": "0x608060405260405180606001604052806036815260200162004b4c60369139600b90816200002e9190620004b4565b506040518060400160405280600581526020017f2e6a736f6e000000000000000000000000000000000000000000000000000000815250600c9081620000759190620004b4565b50655af3107a4000600d556103e8600e556005600f556000601060006101000a81548160ff021916908315150217905550348015620000b357600080fd5b506040518060400160405280601a81526020017f546f6d416e644a65727279204e465420436f6c6c656374696f6e0000000000008152506040518060400160405280600381526020017f544e4a00000000000000000000000000000000000000000000000000000000008152508160009081620001319190620004b4565b508060019081620001439190620004b4565b505050620001666200015a6200016c60201b60201c565b6200017460201b60201c565b6200059b565b600033905090565b6000600a60009054906101000a900473ffffffffffffffffffffffffffffffffffffffff16905081600a60006101000a81548173ffffffffffffffffffffffffffffffffffffffff021916908373ffffffffffffffffffffffffffffffffffffffff1602179055508173ffffffffffffffffffffffffffffffffffffffff168173ffffffffffffffffffffffffffffffffffffffff167f8be0079c531659141344cd1fd0a4f28419497f9722a3daafe3b4186f6b6457e060405160405180910390a35050565b600081519050919050565b7f4e487b7100000000000000000000000000000000000000000000000000000000600052604160045260246000fd5b7f4e487b7100000000000000000000000000000000000000000000000000000000600052602260045260246000fd5b60006002820490506001821680620002bc57607f821691505b602082108103620002d257620002d162000274565b5b50919050565b60008190508160005260206000209050919050565b60006020601f8301049050919050565b600082821b905092915050565b6000600883026200033c7fffffffffffffffffffffffffffffffffffffffffffffffffffffffffffffffff82620002fd565b620003488683620002fd565b95508019841693508086168417925050509392505050565b6000819050919050565b6000819050919050565b6000620003956200038f620003898462000360565b6200036a565b62000360565b9050919050565b6000819050919050565b620003b18362000374565b620003c9620003c0826200039c565b8484546200030a565b825550505050565b600090565b620003e0620003d1565b620003ed818484620003a6565b505050565b5b81811015620004155762000409600082620003d6565b600181019050620003f3565b5050565b601f82111562000464576200042e81620002d8565b6200043984620002ed565b8101602085101562000449578190505b620004616200045885620002ed565b830182620003f2565b50505b505050565b600082821c905092915050565b6000620004896000198460080262000469565b1980831691505092915050565b6000620004a4838362000476565b9150826002028217905092915050565b620004bf826200023a565b67ffffffffffffffff811115620004db57620004da62000245565b5b620004e78254620002a3565b620004f482828562000419565b600060209050601f8311600181146200052c576000841562000517578287015190505b62000523858262000496565b86555062000593565b601f1984166200053c86620002d8565b60005b8281101562000566578489015182556001820191506020850194506020810190506200053f565b8683101562000586578489015162000582601f89168262000476565b8355505b6001600288020188555050505b505050505050565b6145a180620005ab6000396000f3fe6080604052600436106101e35760003560e01c80635c975abb11610102578063a22cb46511610095578063d5abeb0111610064578063d5abeb01146106d8578063da3ef23f14610703578063e985e9c51461072c578063f2fde38b14610769576101e3565b8063a22cb4651461061e578063b88d4fde14610647578063c668286214610670578063c87b56dd1461069b576101e3565b8063715018a6116100d1578063715018a6146105885780637f00c7a61461059f5780638da5cb5b146105c857806395d89b41146105f3576101e3565b80635c975abb146104b85780636352211e146104e35780636c0360eb1461052057806370a082311461054b576101e3565b806323b872dd1161017a57806342842e0e1161014957806342842e0e146103ec578063438b6300146104155780634f6ccce71461045257806355f804b31461048f576101e3565b806323b872dd146103605780632f745c59146103895780633ccfd60b146103c657806340c10f19146103d0576101e3565b8063095ea7b3116101b6578063095ea7b3146102b657806313faede6146102df57806318160ddd1461030a578063239c70ae14610335576101e3565b806301ffc9a7146101e857806302329a291461022557806306fdde031461024e578063081812fc14610279575b600080fd5b3480156101f457600080fd5b5061020f600480360381019061020a9190612b0b565b610792565b60405161021c9190612b53565b60405180910390f35b34801561023157600080fd5b5061024c60048036038101906102479190612b9a565b61080c565b005b34801561025a57600080fd5b506102636108a5565b6040516102709190612c57565b60405180910390f35b34801561028557600080fd5b506102a0600480360381019061029b9190612caf565b610937565b6040516102ad9190612d1d565b60405180910390f35b3480156102c257600080fd5b506102dd60048036038101906102d89190612d64565b6109bc565b005b3480156102eb57600080fd5b506102f4610ad3565b6040516103019190612db3565b60405180910390f35b34801561031657600080fd5b5061031f610ad9565b60405161032c9190612db3565b60405180910390f35b34801561034157600080fd5b5061034a610ae6565b6040516103579190612db3565b60405180910390f35b34801561036c57600080fd5b5061038760048036038101906103829190612dce565b610aec565b005b34801561039557600080fd5b506103b060048036038101906103ab9190612d64565b610b4c565b6040516103bd9190612db3565b60405180910390f35b6103ce610bf1565b005b6103ea60048036038101906103e59190612d64565b610cb6565b005b3480156103f857600080fd5b50610413600480360381019061040e9190612dce565b610eb0565b005b34801561042157600080fd5b5061043c60048036038101906104379190612e21565b610ed0565b6040516104499190612f0c565b60405180910390f35b34801561045e57600080fd5b5061047960048036038101906104749190612caf565b610f7e565b6040516104869190612db3565b60405180910390f35b34801561049b57600080fd5b506104b660048036038101906104b19190613063565b610fef565b005b3480156104c457600080fd5b506104cd61107e565b6040516104da9190612b53565b60405180910390f35b3480156104ef57600080fd5b5061050a60048036038101906105059190612caf565b611091565b6040516105179190612d1d565b60405180910390f35b34801561052c57600080fd5b50610535611142565b6040516105429190612c57565b60405180910390f35b34801561055757600080fd5b50610572600480360381019061056d9190612e21565b6111d0565b60405161057f9190612db3565b60405180910390f35b34801561059457600080fd5b5061059d611287565b005b3480156105ab57600080fd5b506105c660048036038101906105c19190612caf565b61130f565b005b3480156105d457600080fd5b506105dd6113e6565b6040516105ea9190612d1d565b60405180910390f35b3480156105ff57600080fd5b50610608611410565b6040516106159190612c57565b60405180910390f35b34801561062a57600080fd5b50610645600480360381019061064091906130ac565b6114a2565b005b34801561065357600080fd5b5061066e6004803603810190610669919061318d565b611622565b005b34801561067c57600080fd5b50610685611684565b6040516106929190612c57565b60405180910390f35b3480156106a757600080fd5b506106c260048036038101906106bd9190612caf565b611712565b6040516106cf9190612c57565b60405180910390f35b3480156106e457600080fd5b506106ed6117bc565b6040516106fa9190612db3565b60405180910390f35b34801561070f57600080fd5b5061072a60048036038101906107259190613063565b6117c2565b005b34801561073857600080fd5b50610753600480360381019061074e9190613210565b611851565b6040516107609190612b53565b60405180910390f35b34801561077557600080fd5b50610790600480360381019061078b9190612e21565b6118e5565b005b60007f780e9d63000000000000000000000000000000000000000000000000000000007bffffffffffffffffffffffffffffffffffffffffffffffffffffffff1916827bffffffffffffffffffffffffffffffffffffffffffffffffffffffff191614806108055750610804826119dc565b5b9050919050565b610814611abe565b73ffffffffffffffffffffffffffffffffffffffff166108326113e6565b73ffffffffffffffffffffffffffffffffffffffff1614610888576040517f08c379a000000000000000000000000000000000000000000000000000000000815260040161087f9061329c565b60405180910390fd5b80601060006101000a81548160ff02191690831515021790555050565b6060600080546108b4906132eb565b80601f01602080910402602001604051908101604052809291908181526020018280546108e0906132eb565b801561092d5780601f106109025761010080835404028352916020019161092d565b820191906000526020600020905b81548152906001019060200180831161091057829003601f168201915b5050505050905090565b600061094282611ac6565b610981576040517f08c379a00000000000000000000000000000000000000000000000000000000081526004016109789061338e565b60405180910390fd5b6004600083815260200190815260200160002060009054906101000a900473ffffffffffffffffffffffffffffffffffffffff169050919050565b60006109c782611091565b90508073ffffffffffffffffffffffffffffffffffffffff168373ffffffffffffffffffffffffffffffffffffffff1603610a37576040517f08c379a0000000000000000000000000000000000000000000000000000000008152600401610a2e90613420565b60405180910390fd5b8073ffffffffffffffffffffffffffffffffffffffff16610a56611abe565b73ffffffffffffffffffffffffffffffffffffffff161480610a855750610a8481610a7f611abe565b611851565b5b610ac4576040517f08c379a0000000000000000000000000000000000000000000000000000000008152600401610abb906134b2565b60405180910390fd5b610ace8383611b32565b505050565b600d5481565b6000600880549050905090565b600f5481565b610afd610af7611abe565b82611beb565b610b3c576040517f08c379a0000000000000000000000000000000000000000000000000000000008152600401610b3390613544565b60405180910390fd5b610b47838383611cc9565b505050565b6000610b57836111d0565b8210610b98576040517f08c379a0000000000000000000000000000000000000000000000000000000008152600401610b8f906135d6565b60405180910390fd5b600660008473ffffffffffffffffffffffffffffffffffffffff1673ffffffffffffffffffffffffffffffffffffffff168152602001908152602001600020600083815260200190815260200160002054905092915050565b610bf9611abe565b73ffffffffffffffffffffffffffffffffffffffff16610c176113e6565b73ffffffffffffffffffffffffffffffffffffffff1614610c6d576040517f08c379a0000000000000000000000000000000000000000000000000000000008152600401610c649061329c565b60405180910390fd5b3373ffffffffffffffffffffffffffffffffffffffff166108fc479081150290604051600060405180830381858888f19350505050158015610cb3573d6000803e3d6000fd5b50565b6000610cc0610ad9565b9050601060009054906101000a900460ff1615610d12576040517f08c379a0000000000000000000000000000000000000000000000000000000008152600401610d0990613642565b60405180910390fd5b60008211610d55576040517f08c379a0000000000000000000000000000000000000000000000000000000008152600401610d4c906136ae565b60405180910390fd5b600f54821115610d9a576040517f08c379a0000000000000000000000000000000000000000000000000000000008152600401610d919061371a565b60405180910390fd5b600e548282610da99190613769565b1115610dea576040517f08c379a0000000000000000000000000000000000000000000000000000000008152600401610de1906137e9565b60405180910390fd5b610df26113e6565b73ffffffffffffffffffffffffffffffffffffffff163373ffffffffffffffffffffffffffffffffffffffff1614610e745781600d54610e329190613809565b3414610e73576040517f08c379a0000000000000000000000000000000000000000000000000000000008152600401610e6a906138bd565b60405180910390fd5b5b6000600190505b828111610eaa57610e97848284610e929190613769565b611f24565b8080610ea2906138dd565b915050610e7b565b50505050565b610ecb83838360405180602001604052806000815250611622565b505050565b60606000610edd836111d0565b905060008167ffffffffffffffff811115610efb57610efa612f38565b5b604051908082528060200260200182016040528015610f295781602001602082028036833780820191505090505b50905060005b82811015610f7357610f418582610b4c565b828281518110610f5457610f53613925565b5b6020026020010181815250508080610f6b906138dd565b915050610f2f565b508092505050919050565b6000610f88610ad9565b8210610fc9576040517f08c379a0000000000000000000000000000000000000000000000000000000008152600401610fc0906139c6565b60405180910390fd5b60088281548110610fdd57610fdc613925565b5b90600052602060002001549050919050565b610ff7611abe565b73ffffffffffffffffffffffffffffffffffffffff166110156113e6565b73ffffffffffffffffffffffffffffffffffffffff161461106b576040517f08c379a00000000000000000000000000000000000000000000000000000000081526004016110629061329c565b60405180910390fd5b80600b908161107a9190613b92565b5050565b601060009054906101000a900460ff1681565b6000806002600084815260200190815260200160002060009054906101000a900473ffffffffffffffffffffffffffffffffffffffff169050600073ffffffffffffffffffffffffffffffffffffffff168173ffffffffffffffffffffffffffffffffffffffff1603611139576040517f08c379a000000000000000000000000000000000000000000000000000000000815260040161113090613cd6565b60405180910390fd5b80915050919050565b600b805461114f906132eb565b80601f016020809104026020016040519081016040528092919081815260200182805461117b906132eb565b80156111c85780601f1061119d576101008083540402835291602001916111c8565b820191906000526020600020905b8154815290600101906020018083116111ab57829003601f168201915b505050505081565b60008073ffffffffffffffffffffffffffffffffffffffff168273ffffffffffffffffffffffffffffffffffffffff1603611240576040517f08c379a000000000000000000000000000000000000000000000000000000000815260040161123790613d68565b60405180910390fd5b600360008373ffffffffffffffffffffffffffffffffffffffff1673ffffffffffffffffffffffffffffffffffffffff168152602001908152602001600020549050919050565b61128f611abe565b73ffffffffffffffffffffffffffffffffffffffff166112ad6113e6565b73ffffffffffffffffffffffffffffffffffffffff1614611303576040517f08c379a00000000000000000000000000000000000000000000000000000000081526004016112fa9061329c565b60405180910390fd5b61130d6000611f42565b565b611317611abe565b73ffffffffffffffffffffffffffffffffffffffff166113356113e6565b73ffffffffffffffffffffffffffffffffffffffff161461138b576040517f08c379a00000000000000000000000000000000000000000000000000000000081526004016113829061329c565b60405180910390fd5b60008111801561139d5750600e548111155b6113dc576040517f08c379a00000000000000000000000000000000000000000000000000000000081526004016113d390613dd4565b60405180910390fd5b80600f8190555050565b6000600a60009054906101000a900473ffffffffffffffffffffffffffffffffffffffff16905090565b60606001805461141f906132eb565b80601f016020809104026020016040519081016040528092919081815260200182805461144b906132eb565b80156114985780601f1061146d57610100808354040283529160200191611498565b820191906000526020600020905b81548152906001019060200180831161147b57829003601f168201915b5050505050905090565b6114aa611abe565b73ffffffffffffffffffffffffffffffffffffffff168273ffffffffffffffffffffffffffffffffffffffff1603611517576040517f08c379a000000000000000000000000000000000000000000000000000000000815260040161150e90613e40565b60405180910390fd5b8060056000611524611abe565b73ffffffffffffffffffffffffffffffffffffffff1673ffffffffffffffffffffffffffffffffffffffff16815260200190815260200160002060008473ffffffffffffffffffffffffffffffffffffffff1673ffffffffffffffffffffffffffffffffffffffff16815260200190815260200160002060006101000a81548160ff0219169083151502179055508173ffffffffffffffffffffffffffffffffffffffff166115d1611abe565b73ffffffffffffffffffffffffffffffffffffffff167f17307eab39ab6107e8899845ad3d59bd9653f200f220920489ca2b5937696c31836040516116169190612b53565b60405180910390a35050565b61163361162d611abe565b83611beb565b611672576040517f08c379a000000000000000000000000000000000000000000000000000000000815260040161166990613544565b60405180910390fd5b61167e84848484612008565b50505050565b600c8054611691906132eb565b80601f01602080910402602001604051908101604052809291908181526020018280546116bd906132eb565b801561170a5780601f106116df5761010080835404028352916020019161170a565b820191906000526020600020905b8154815290600101906020018083116116ed57829003601f168201915b505050505081565b606061171d82611ac6565b61175c576040517f08c379a000000000000000000000000000000000000000000000000000000000815260040161175390613ed2565b60405180910390fd5b6000611766612064565b9050600081511161178657604051806020016040528060008152506117b4565b80611790846120f6565b600c6040516020016117a493929190613fb1565b6040516020818303038152906040525b915050919050565b600e5481565b6117ca611abe565b73ffffffffffffffffffffffffffffffffffffffff166117e86113e6565b73ffffffffffffffffffffffffffffffffffffffff161461183e576040517f08c379a00000000000000000000000000000000000000000000000000000000081526004016118359061329c565b60405180910390fd5b80600c908161184d9190613b92565b5050565b6000600560008473ffffffffffffffffffffffffffffffffffffffff1673ffffffffffffffffffffffffffffffffffffffff16815260200190815260200160002060008373ffffffffffffffffffffffffffffffffffffffff1673ffffffffffffffffffffffffffffffffffffffff16815260200190815260200160002060009054906101000a900460ff16905092915050565b6118ed611abe565b73ffffffffffffffffffffffffffffffffffffffff1661190b6113e6565b73ffffffffffffffffffffffffffffffffffffffff1614611961576040517f08c379a00000000000000000000000000000000000000000000000000000000081526004016119589061329c565b60405180910390fd5b600073ffffffffffffffffffffffffffffffffffffffff168173ffffffffffffffffffffffffffffffffffffffff16036119d0576040517f08c379a00000000000000000000000000000000000000000000000000000000081526004016119c790614054565b60405180910390fd5b6119d981611f42565b50565b60007f80ac58cd000000000000000000000000000000000000000000000000000000007bffffffffffffffffffffffffffffffffffffffffffffffffffffffff1916827bffffffffffffffffffffffffffffffffffffffffffffffffffffffff19161480611aa757507f5b5e139f000000000000000000000000000000000000000000000000000000007bffffffffffffffffffffffffffffffffffffffffffffffffffffffff1916827bffffffffffffffffffffffffffffffffffffffffffffffffffffffff1916145b80611ab75750611ab682612256565b5b9050919050565b600033905090565b60008073ffffffffffffffffffffffffffffffffffffffff166002600084815260200190815260200160002060009054906101000a900473ffffffffffffffffffffffffffffffffffffffff1673ffffffffffffffffffffffffffffffffffffffff1614159050919050565b816004600083815260200190815260200160002060006101000a81548173ffffffffffffffffffffffffffffffffffffffff021916908373ffffffffffffffffffffffffffffffffffffffff160217905550808273ffffffffffffffffffffffffffffffffffffffff16611ba583611091565b73ffffffffffffffffffffffffffffffffffffffff167f8c5be1e5ebec7d5bd14f71427d1e84f3dd0314c0f7b2291e5b200ac8c7c3b92560405160405180910390a45050565b6000611bf682611ac6565b611c35576040517f08c379a0000000000000000000000000000000000000000000000000000000008152600401611c2c906140e6565b60405180910390fd5b6000611c4083611091565b90508073ffffffffffffffffffffffffffffffffffffffff168473ffffffffffffffffffffffffffffffffffffffff161480611caf57508373ffffffffffffffffffffffffffffffffffffffff16611c9784610937565b73ffffffffffffffffffffffffffffffffffffffff16145b80611cc05750611cbf8185611851565b5b91505092915050565b8273ffffffffffffffffffffffffffffffffffffffff16611ce982611091565b73ffffffffffffffffffffffffffffffffffffffff1614611d3f576040517f08c379a0000000000000000000000000000000000000000000000000000000008152600401611d3690614178565b60405180910390fd5b600073ffffffffffffffffffffffffffffffffffffffff168273ffffffffffffffffffffffffffffffffffffffff1603611dae576040517f08c379a0000000000000000000000000000000000000000000000000000000008152600401611da59061420a565b60405180910390fd5b611db98383836122c0565b611dc4600082611b32565b6001600360008573ffffffffffffffffffffffffffffffffffffffff1673ffffffffffffffffffffffffffffffffffffffff1681526020019081526020016000206000828254611e14919061422a565b925050819055506001600360008473ffffffffffffffffffffffffffffffffffffffff1673ffffffffffffffffffffffffffffffffffffffff1681526020019081526020016000206000828254611e6b9190613769565b92505081905550816002600083815260200190815260200160002060006101000a81548173ffffffffffffffffffffffffffffffffffffffff021916908373ffffffffffffffffffffffffffffffffffffffff160217905550808273ffffffffffffffffffffffffffffffffffffffff168473ffffffffffffffffffffffffffffffffffffffff167fddf252ad1be2c89b69c2b068fc378daa952ba7f163c4a11628f55a4df523b3ef60405160405180910390a4505050565b611f3e8282604051806020016040528060008152506123d2565b5050565b6000600a60009054906101000a900473ffffffffffffffffffffffffffffffffffffffff16905081600a60006101000a81548173ffffffffffffffffffffffffffffffffffffffff021916908373ffffffffffffffffffffffffffffffffffffffff1602179055508173ffffffffffffffffffffffffffffffffffffffff168173ffffffffffffffffffffffffffffffffffffffff167f8be0079c531659141344cd1fd0a4f28419497f9722a3daafe3b4186f6b6457e060405160405180910390a35050565b612013848484611cc9565b61201f8484848461242d565b61205e576040517f08c379a0000000000000000000000000000000000000000000000000000000008152600401612055906142d0565b60405180910390fd5b50505050565b6060600b8054612073906132eb565b80601f016020809104026020016040519081016040528092919081815260200182805461209f906132eb565b80156120ec5780601f106120c1576101008083540402835291602001916120ec565b820191906000526020600020905b8154815290600101906020018083116120cf57829003601f168201915b5050505050905090565b60606000820361213d576040518060400160405280600181526020017f30000000000000000000000000000000000000000000000000000000000000008152509050612251565b600082905060005b6000821461216f578080612158906138dd565b915050600a82612168919061431f565b9150612145565b60008167ffffffffffffffff81111561218b5761218a612f38565b5b6040519080825280601f01601f1916602001820160405280156121bd5781602001600182028036833780820191505090505b5090505b6000851461224a576001826121d6919061422a565b9150600a856121e59190614350565b60306121f19190613769565b60f81b81838151811061220757612206613925565b5b60200101907effffffffffffffffffffffffffffffffffffffffffffffffffffffffffffff1916908160001a905350600a85612243919061431f565b94506121c1565b8093505050505b919050565b60007f01ffc9a7000000000000000000000000000000000000000000000000000000007bffffffffffffffffffffffffffffffffffffffffffffffffffffffff1916827bffffffffffffffffffffffffffffffffffffffffffffffffffffffff1916149050919050565b6122cb8383836125b4565b600073ffffffffffffffffffffffffffffffffffffffff168373ffffffffffffffffffffffffffffffffffffffff160361230d57612308816125b9565b61234c565b8173ffffffffffffffffffffffffffffffffffffffff168373ffffffffffffffffffffffffffffffffffffffff161461234b5761234a8382612602565b5b5b600073ffffffffffffffffffffffffffffffffffffffff168273ffffffffffffffffffffffffffffffffffffffff160361238e576123898161276f565b6123cd565b8273ffffffffffffffffffffffffffffffffffffffff168273ffffffffffffffffffffffffffffffffffffffff16146123cc576123cb8282612840565b5b5b505050565b6123dc83836128bf565b6123e9600084848461242d565b612428576040517f08c379a000000000000000000000000000000000000000000000000000000000815260040161241f906142d0565b60405180910390fd5b505050565b600061244e8473ffffffffffffffffffffffffffffffffffffffff16612a8c565b156125a7578373ffffffffffffffffffffffffffffffffffffffff1663150b7a02612477611abe565b8786866040518563ffffffff1660e01b815260040161249994939291906143d6565b6020604051808303816000875af19250505080156124d557506040513d601f19601f820116820180604052508101906124d29190614437565b60015b612557573d8060008114612505576040519150601f19603f3d011682016040523d82523d6000602084013e61250a565b606091505b50600081510361254f576040517f08c379a0000000000000000000000000000000000000000000000000000000008152600401612546906142d0565b60405180910390fd5b805181602001fd5b63150b7a0260e01b7bffffffffffffffffffffffffffffffffffffffffffffffffffffffff1916817bffffffffffffffffffffffffffffffffffffffffffffffffffffffff1916149150506125ac565b600190505b949350505050565b505050565b6008805490506009600083815260200190815260200160002081905550600881908060018154018082558091505060019003906000526020600020016000909190919091505550565b6000600161260f846111d0565b612619919061422a565b90506000600760008481526020019081526020016000205490508181146126fe576000600660008673ffffffffffffffffffffffffffffffffffffffff1673ffffffffffffffffffffffffffffffffffffffff168152602001908152602001600020600084815260200190815260200160002054905080600660008773ffffffffffffffffffffffffffffffffffffffff1673ffffffffffffffffffffffffffffffffffffffff168152602001908152602001600020600084815260200190815260200160002081905550816007600083815260200190815260200160002081905550505b6007600084815260200190815260200160002060009055600660008573ffffffffffffffffffffffffffffffffffffffff1673ffffffffffffffffffffffffffffffffffffffff16815260200190815260200160002060008381526020019081526020016000206000905550505050565b60006001600880549050612783919061422a565b90506000600960008481526020019081526020016000205490506000600883815481106127b3576127b2613925565b5b9060005260206000200154905080600883815481106127d5576127d4613925565b5b90600052602060002001819055508160096000838152602001908152602001600020819055506009600085815260200190815260200160002060009055600880548061282457612823614464565b5b6001900381819060005260206000200160009055905550505050565b600061284b836111d0565b905081600660008573ffffffffffffffffffffffffffffffffffffffff1673ffffffffffffffffffffffffffffffffffffffff168152602001908152602001600020600083815260200190815260200160002081905550806007600084815260200190815260200160002081905550505050565b600073ffffffffffffffffffffffffffffffffffffffff168273ffffffffffffffffffffffffffffffffffffffff160361292e576040517f08c379a0000000000000000000000000000000000000000000000000000000008152600401612925906144df565b60405180910390fd5b61293781611ac6565b15612977576040517f08c379a000000000000000000000000000000000000000000000000000000000815260040161296e9061454b565b60405180910390fd5b612983600083836122c0565b6001600360008473ffffffffffffffffffffffffffffffffffffffff1673ffffffffffffffffffffffffffffffffffffffff16815260200190815260200160002060008282546129d39190613769565b92505081905550816002600083815260200190815260200160002060006101000a81548173ffffffffffffffffffffffffffffffffffffffff021916908373ffffffffffffffffffffffffffffffffffffffff160217905550808273ffffffffffffffffffffffffffffffffffffffff16600073ffffffffffffffffffffffffffffffffffffffff167fddf252ad1be2c89b69c2b068fc378daa952ba7f163c4a11628f55a4df523b3ef60405160405180910390a45050565b600080823b905060008111915050919050565b6000604051905090565b600080fd5b600080fd5b60007fffffffff0000000000000000000000000000000000000000000000000000000082169050919050565b612ae881612ab3565b8114612af357600080fd5b50565b600081359050612b0581612adf565b92915050565b600060208284031215612b2157612b20612aa9565b5b6000612b2f84828501612af6565b91505092915050565b60008115159050919050565b612b4d81612b38565b82525050565b6000602082019050612b686000830184612b44565b92915050565b612b7781612b38565b8114612b8257600080fd5b50565b600081359050612b9481612b6e565b92915050565b600060208284031215612bb057612baf612aa9565b5b6000612bbe84828501612b85565b91505092915050565b600081519050919050565b600082825260208201905092915050565b60005b83811015612c01578082015181840152602081019050612be6565b60008484015250505050565b6000601f19601f8301169050919050565b6000612c2982612bc7565b612c338185612bd2565b9350612c43818560208601612be3565b612c4c81612c0d565b840191505092915050565b60006020820190508181036000830152612c718184612c1e565b905092915050565b6000819050919050565b612c8c81612c79565b8114612c9757600080fd5b50565b600081359050612ca981612c83565b92915050565b600060208284031215612cc557612cc4612aa9565b5b6000612cd384828501612c9a565b91505092915050565b600073ffffffffffffffffffffffffffffffffffffffff82169050919050565b6000612d0782612cdc565b9050919050565b612d1781612cfc565b82525050565b6000602082019050612d326000830184612d0e565b92915050565b612d4181612cfc565b8114612d4c57600080fd5b50565b600081359050612d5e81612d38565b92915050565b60008060408385031215612d7b57612d7a612aa9565b5b6000612d8985828601612d4f565b9250506020612d9a85828601612c9a565b9150509250929050565b612dad81612c79565b82525050565b6000602082019050612dc86000830184612da4565b92915050565b600080600060608486031215612de757612de6612aa9565b5b6000612df586828701612d4f565b9350506020612e0686828701612d4f565b9250506040612e1786828701612c9a565b9150509250925092565b600060208284031215612e3757612e36612aa9565b5b6000612e4584828501612d4f565b91505092915050565b600081519050919050565b600082825260208201905092915050565b6000819050602082019050919050565b612e8381612c79565b82525050565b6000612e958383612e7a565b60208301905092915050565b6000602082019050919050565b6000612eb982612e4e565b612ec38185612e59565b9350612ece83612e6a565b8060005b83811015612eff578151612ee68882612e89565b9750612ef183612ea1565b925050600181019050612ed2565b5085935050505092915050565b60006020820190508181036000830152612f268184612eae565b905092915050565b600080fd5b600080fd5b7f4e487b7100000000000000000000000000000000000000000000000000000000600052604160045260246000fd5b612f7082612c0d565b810181811067ffffffffffffffff82111715612f8f57612f8e612f38565b5b80604052505050565b6000612fa2612a9f565b9050612fae8282612f67565b919050565b600067ffffffffffffffff821115612fce57612fcd612f38565b5b612fd782612c0d565b9050602081019050919050565b82818337600083830152505050565b600061300661300184612fb3565b612f98565b90508281526020810184848401111561302257613021612f33565b5b61302d848285612fe4565b509392505050565b600082601f83011261304a57613049612f2e565b5b813561305a848260208601612ff3565b91505092915050565b60006020828403121561307957613078612aa9565b5b600082013567ffffffffffffffff81111561309757613096612aae565b5b6130a384828501613035565b91505092915050565b600080604083850312156130c3576130c2612aa9565b5b60006130d185828601612d4f565b92505060206130e285828601612b85565b9150509250929050565b600067ffffffffffffffff82111561310757613106612f38565b5b61311082612c0d565b9050602081019050919050565b600061313061312b846130ec565b612f98565b90508281526020810184848401111561314c5761314b612f33565b5b613157848285612fe4565b509392505050565b600082601f83011261317457613173612f2e565b5b813561318484826020860161311d565b91505092915050565b600080600080608085870312156131a7576131a6612aa9565b5b60006131b587828801612d4f565b94505060206131c687828801612d4f565b93505060406131d787828801612c9a565b925050606085013567ffffffffffffffff8111156131f8576131f7612aae565b5b6132048782880161315f565b91505092959194509250565b6000806040838503121561322757613226612aa9565b5b600061323585828601612d4f565b925050602061324685828601612d4f565b9150509250929050565b7f4f776e61626c653a2063616c6c6572206973206e6f7420746865206f776e6572600082015250565b6000613286602083612bd2565b915061329182613250565b602082019050919050565b600060208201905081810360008301526132b581613279565b9050919050565b7f4e487b7100000000000000000000000000000000000000000000000000000000600052602260045260246000fd5b6000600282049050600182168061330357607f821691505b602082108103613316576133156132bc565b5b50919050565b7f4552433732313a20617070726f76656420717565727920666f72206e6f6e657860008201527f697374656e7420746f6b656e0000000000000000000000000000000000000000602082015250565b6000613378602c83612bd2565b91506133838261331c565b604082019050919050565b600060208201905081810360008301526133a78161336b565b9050919050565b7f4552433732313a20617070726f76616c20746f2063757272656e74206f776e6560008201527f7200000000000000000000000000000000000000000000000000000000000000602082015250565b600061340a602183612bd2565b9150613415826133ae565b604082019050919050565b60006020820190508181036000830152613439816133fd565b9050919050565b7f4552433732313a20617070726f76652063616c6c6572206973206e6f74206f7760008201527f6e6572206e6f7220617070726f76656420666f7220616c6c0000000000000000602082015250565b600061349c603883612bd2565b91506134a782613440565b604082019050919050565b600060208201905081810360008301526134cb8161348f565b9050919050565b7f4552433732313a207472616e736665722063616c6c6572206973206e6f74206f60008201527f776e6572206e6f7220617070726f766564000000000000000000000000000000602082015250565b600061352e603183612bd2565b9150613539826134d2565b604082019050919050565b6000602082019050818103600083015261355d81613521565b9050919050565b7f455243373231456e756d657261626c653a206f776e657220696e646578206f7560008201527f74206f6620626f756e6473000000000000000000000000000000000000000000602082015250565b60006135c0602b83612bd2565b91506135cb82613564565b604082019050919050565b600060208201905081810360008301526135ef816135b3565b9050919050565b7f6d696e74696e6720697320706175736564000000000000000000000000000000600082015250565b600061362c601183612bd2565b9150613637826135f6565b602082019050919050565b6000602082019050818103600083015261365b8161361f565b9050919050565b7f6d696e7420616d6f756e74206973206c657373207468616e2031000000000000600082015250565b6000613698601a83612bd2565b91506136a382613662565b602082019050919050565b600060208201905081810360008301526136c78161368b565b9050919050565b7f6d6178206d696e7420616d6f756e742065786365656465640000000000000000600082015250565b6000613704601883612bd2565b915061370f826136ce565b602082019050919050565b60006020820190508181036000830152613733816136f7565b9050919050565b7f4e487b7100000000000000000000000000000000000000000000000000000000600052601160045260246000fd5b600061377482612c79565b915061377f83612c79565b92508282019050808211156137975761379661373a565b5b92915050565b7f6d617820737570706c7920657863656564656400000000000000000000000000600082015250565b60006137d3601383612bd2565b91506137de8261379d565b602082019050919050565b60006020820190508181036000830152613802816137c6565b9050919050565b600061381482612c79565b915061381f83612c79565b925082820261382d81612c79565b915082820484148315176138445761384361373a565b5b5092915050565b7f4e65656420746f2073656e6420302e3030303120657468657220666f7220656160008201527f636820746f6b656e20746f206265206d696e7465640000000000000000000000602082015250565b60006138a7603583612bd2565b91506138b28261384b565b604082019050919050565b600060208201905081810360008301526138d68161389a565b9050919050565b60006138e882612c79565b91507fffffffffffffffffffffffffffffffffffffffffffffffffffffffffffffffff820361391a5761391961373a565b5b600182019050919050565b7f4e487b7100000000000000000000000000000000000000000000000000000000600052603260045260246000fd5b7f455243373231456e756d657261626c653a20676c6f62616c20696e646578206f60008201527f7574206f6620626f756e64730000000000000000000000000000000000000000602082015250565b60006139b0602c83612bd2565b91506139bb82613954565b604082019050919050565b600060208201905081810360008301526139df816139a3565b9050919050565b60008190508160005260206000209050919050565b60006020601f8301049050919050565b600082821b905092915050565b600060088302613a487fffffffffffffffffffffffffffffffffffffffffffffffffffffffffffffffff82613a0b565b613a528683613a0b565b95508019841693508086168417925050509392505050565b6000819050919050565b6000613a8f613a8a613a8584612c79565b613a6a565b612c79565b9050919050565b6000819050919050565b613aa983613a74565b613abd613ab582613a96565b848454613a18565b825550505050565b600090565b613ad2613ac5565b613add818484613aa0565b505050565b5b81811015613b0157613af6600082613aca565b600181019050613ae3565b5050565b601f821115613b4657613b17816139e6565b613b20846139fb565b81016020851015613b2f578190505b613b43613b3b856139fb565b830182613ae2565b50505b505050565b600082821c905092915050565b6000613b6960001984600802613b4b565b1980831691505092915050565b6000613b828383613b58565b9150826002028217905092915050565b613b9b82612bc7565b67ffffffffffffffff811115613bb457613bb3612f38565b5b613bbe82546132eb565b613bc9828285613b05565b600060209050601f831160018114613bfc5760008415613bea578287015190505b613bf48582613b76565b865550613c5c565b601f198416613c0a866139e6565b60005b82811015613c3257848901518255600182019150602085019450602081019050613c0d565b86831015613c4f5784890151613c4b601f891682613b58565b8355505b6001600288020188555050505b505050505050565b7f4552433732313a206f776e657220717565727920666f72206e6f6e657869737460008201527f656e7420746f6b656e0000000000000000000000000000000000000000000000602082015250565b6000613cc0602983612bd2565b9150613ccb82613c64565b604082019050919050565b60006020820190508181036000830152613cef81613cb3565b9050919050565b7f4552433732313a2062616c616e636520717565727920666f7220746865207a6560008201527f726f206164647265737300000000000000000000000000000000000000000000602082015250565b6000613d52602a83612bd2565b9150613d5d82613cf6565b604082019050919050565b60006020820190508181036000830152613d8181613d45565b9050919050565b7f496e76616c6964206d61784d696e74416d6f756e740000000000000000000000600082015250565b6000613dbe601583612bd2565b9150613dc982613d88565b602082019050919050565b60006020820190508181036000830152613ded81613db1565b9050919050565b7f4552433732313a20617070726f766520746f2063616c6c657200000000000000600082015250565b6000613e2a601983612bd2565b9150613e3582613df4565b602082019050919050565b60006020820190508181036000830152613e5981613e1d565b9050919050565b7f4552433732314d657461646174613a2055524920717565727920666f72206e6f60008201527f6e6578697374656e7420746f6b656e0000000000000000000000000000000000602082015250565b6000613ebc602f83612bd2565b9150613ec782613e60565b604082019050919050565b60006020820190508181036000830152613eeb81613eaf565b9050919050565b600081905092915050565b6000613f0882612bc7565b613f128185613ef2565b9350613f22818560208601612be3565b80840191505092915050565b60008154613f3b816132eb565b613f458186613ef2565b94506001821660008114613f605760018114613f7557613fa8565b60ff1983168652811515820286019350613fa8565b613f7e856139e6565b60005b83811015613fa057815481890152600182019150602081019050613f81565b838801955050505b50505092915050565b6000613fbd8286613efd565b9150613fc98285613efd565b9150613fd58284613f2e565b9150819050949350505050565b7f4f776e61626c653a206e6577206f776e657220697320746865207a65726f206160008201527f6464726573730000000000000000000000000000000000000000000000000000602082015250565b600061403e602683612bd2565b915061404982613fe2565b604082019050919050565b6000602082019050818103600083015261406d81614031565b9050919050565b7f4552433732313a206f70657261746f7220717565727920666f72206e6f6e657860008201527f697374656e7420746f6b656e0000000000000000000000000000000000000000602082015250565b60006140d0602c83612bd2565b91506140db82614074565b604082019050919050565b600060208201905081810360008301526140ff816140c3565b9050919050565b7f4552433732313a207472616e73666572206f6620746f6b656e2074686174206960008201527f73206e6f74206f776e0000000000000000000000000000000000000000000000602082015250565b6000614162602983612bd2565b915061416d82614106565b604082019050919050565b6000602082019050818103600083015261419181614155565b9050919050565b7f4552433732313a207472616e7366657220746f20746865207a65726f2061646460008201527f7265737300000000000000000000000000000000000000000000000000000000602082015250565b60006141f4602483612bd2565b91506141ff82614198565b604082019050919050565b60006020820190508181036000830152614223816141e7565b9050919050565b600061423582612c79565b915061424083612c79565b92508282039050818111156142585761425761373a565b5b92915050565b7f4552433732313a207472616e7366657220746f206e6f6e20455243373231526560008201527f63656976657220696d706c656d656e7465720000000000000000000000000000602082015250565b60006142ba603283612bd2565b91506142c58261425e565b604082019050919050565b600060208201905081810360008301526142e9816142ad565b9050919050565b7f4e487b7100000000000000000000000000000000000000000000000000000000600052601260045260246000fd5b600061432a82612c79565b915061433583612c79565b925082614345576143446142f0565b5b828204905092915050565b600061435b82612c79565b915061436683612c79565b925082614376576143756142f0565b5b828206905092915050565b600081519050919050565b600082825260208201905092915050565b60006143a882614381565b6143b2818561438c565b93506143c2818560208601612be3565b6143cb81612c0d565b840191505092915050565b60006080820190506143eb6000830187612d0e565b6143f86020830186612d0e565b6144056040830185612da4565b8181036060830152614417818461439d565b905095945050505050565b60008151905061443181612adf565b92915050565b60006020828403121561444d5761444c612aa9565b5b600061445b84828501614422565b91505092915050565b7f4e487b7100000000000000000000000000000000000000000000000000000000600052603160045260246000fd5b7f4552433732313a206d696e7420746f20746865207a65726f2061646472657373600082015250565b60006144c9602083612bd2565b91506144d482614493565b602082019050919050565b600060208201905081810360008301526144f8816144bc565b9050919050565b7f4552433732313a20746f6b656e20616c7265616479206d696e74656400000000600082015250565b6000614535601c83612bd2565b9150614540826144ff565b602082019050919050565b6000602082019050818103600083015261456481614528565b905091905056fea26469706673582212200e80bfa729176a1804b5e36830c05378145c79ffbaf4b6ca605e822d7df9990064736f6c63430008120033697066733a2f2f516d506b5773616a767969797872706f395a50336b3878587073444631427465696f73686a654c6d736a396572352f",
  "linkReferences": {},
  "deployedLinkReferences": {}
}